:020000040800F2
:10000000A0060020CD0E00086D0300086F03000855
:1000100073030008770300087B030008000000005A
:100020000000000000000000000000007F03000846
:100030008103000800000000830300088503000816
:10004000E70E0008E70E0008E70E0008E70E0008BC
:10005000E70E0008E70E0008E70E0008B30D0008E1
:10006000E70E0008E70E0008E70E0008E70E00089C
:10007000E70E0008E70E0008E70E0008E70E00088C
:10008000E70E0008E70E0008E70E0008E70E00087C
:10009000E70E0008E70E0008E70E0008E70E00086C
:1000A000E70E0008E70E0008E70E0008E70E00085C
:1000B000E70E0008E70E0008E70E0008E70E00084C
:1000C000E70E0008E70E0008E70E0008E70E00083C
:1000D000E70E0008E70E0008E70E0008E70E00082C
:1000E000E70E0008E70E0008E70E0008E70E00081C
:1000F000E70E0008E70E0008E70E0008E70E00080C
:10010000E70E0008E70E0008E70E0008E70E0008FB
:10011000E70E0008E70E0008E70E0008E70E0008EB
:10012000E70E0008E70E0008E70E0008E70E0008DB
:10013000E70E0008E70E0008E70E0008E70E0008CB
:10014000E70E0008E70E0008E70E0008E70E0008BB
:10015000E70E0008E70E0008E70E0008E70E0008AB
:10016000E70E0008E70E0008E70E0008E70E00089B
:10017000E70E0008E70E0008E70E0008E70E00088B
:10018000E70E0008E70E000800F002F800F03CF867
:100190000AA090E8000C82448344AAF10107DA45E2
:1001A00001D100F031F8AFF2090EBAE80F0013F0F8
:1001B000010F18BFFB1A43F001031847AC210000E0
:1001C000CC210000103A24BF78C878C1FAD8520771
:1001D00024BF30C830C144BF04680C6070470000C1
:1001E0000023002400250026103A28BF78C1FBD840
:1001F000520728BF30C148BF0B6070471FB502F0DF
:100200009FF81FBD10B510BD01F026FF1146FFF786
:10021000F5FF00F04DF801F044FF03B4FFF7F2FFE3
:1002200003BC01F049FF000010B540F20F1340F28B
:10023000DF120021084600F00CFA00240BE004F065
:10024000010020B94FF6FF7000F0B7F902E000207E
:1002500000F0B3F9641CB4F5FF3FF0D310BD70B5E6
:10026000054640F20F1340F2DF120021084600F06D
:10027000F0F9002403E0284600F09FF9641CB4F56F
:10028000FF3FF8D370BD70B50446234640F2DF123D
:100290002146002000F0DDF9002505E04FF478400C
:1002A00000F08BF9681C85B2B5F5F07FF6DB70BD08
:1002B00000244FF4A06000F029FEA82000F084FD87
:1002C0004FF47A7000F0E2FD00F020FD00F037FC02
:1002D0004FF40071234800F08BFF42E04FF480514F
:1002E000214800F090FF4FF47840FFF7B8FF4FF43B
:1002F0007A7000F0CBFD4FF4FC60FFF7B0FF4FF4D5
:100300007A7000F0C3FD4FF47840FFF7A8FF4FF478
:100310007A7000F0BBFD4FF4FC60FFF7A0FF4FF4D4
:100320007A7000F0B3FD1F20FFF799FF4FF47A7049
:1003300000F0ACFDFFF778FF4FF4FA6000F0A6FD87
:100340004FF6FF7000F027FA002407E02046FFF781
:100350009AFF052000F09AFD601C84B2B4F5887FF6
:10036000F4DBBBE700140240000C0240704700BF02
:10037000FEE700BFFEE700BFFEE700BFFEE77047F5
:1003800070477047704700000CB500200190009046
:100390007648006840F480307449086000BF7348B4
:1003A000006800F4003000900198401C0190009813
:1003B00018B90198B0F5A04FF1D16C48006800F46D
:1003C000003010B10120009001E000200090009862
:1003D000012846D165484030006840F080506349AC
:1003E000403108606248006840F44040604908605D
:1003F0005E48083000685D490831086008460068BA
:1004000040F4004008600846006840F4A0500860CE
:100410005848091F0860081F006840F08070091FD5
:10042000086000BF5148006800F000700028F9D053
:1004300040F20570504908604C480830006820F0D0
:1004400003004A49083108600846006840F002008D
:10045000086000BF45480830006800F00C0008281C
:10046000F8D10CBD10B54548006840F47000434910
:1004700008603E48006840F001003C4908600020E8
:100480003A4908310860394800683D490840374911
:1004900008603C48091D0860081F006820F480209F
:1004A000091F0860002031490C310860FFF76CFF1C
:1004B0004FF0006031498039086010BD70B50020F0
:1004C0000022022300240221284D08352D6805F062
:1004D0000C0020B1042806D0082834D107E02A4DAA
:1004E0002A4E356033E02A4D284E35602FE01F4DEF
:1004F0002D1D2D68C5F380541C4D2D1D2D6805F054
:100500003F0154B1224DB5FBF1F5184E361D36684A
:10051000C6F3881605FB06F209E01B4DB5FBF1F5A5
:10052000124E361D3668C6F3881605FB06F20F4DCF
:100530002D1D2D68C5F301456D1C6B00B2FBF3F555
:10054000124E356003E0104D104E356000BF00BF05
:10055000064D08352D68C5F303150E4E705D0B4D25
:100560002D68C540094E356070BD0000003802405E
:100570000070004008544007003C024088ED00E055
:10058000FFFFF6FE103000240024F40000000020DD
:1005900000127A000400002008B5FE480088009090
:1005A000BDF8000008BD01B5BDF800000090BDF821
:1005B0000000F849891E088008BD01B5BDF800009B
:1005C0000090BDF80000F349088008BD00B5FFF7B2
:1005D000E3FF00BDEF4A921E1080921C118070470D
:1005E00070B506460C4615463046FFF7DCFF06E0C0
:1005F000FFF7ECFF04F8010B642000F0FFFB281E5E
:10060000A5F10105F4D170BD00B5E3490889FFF7F4
:10061000CAFF00BD00B5E0494889FFF7C4FF00BD2F
:10062000DC490880704710B5034603F0F80000026B
:1006300001F0FC0440EAC40040EAD20010BD10B54D
:100640000024FFF7C3FF0446012000F0D7FB20463B
:1006500010BD70B504460D461E46CF48807920B1C6
:10066000022813D0032843D121E0A01884B2A01A95
:1006700082B2A01A84B2C8480088001B401E84B20F
:10068000C5480088801A401E82B232E0A81985B29F
:10069000A81B86B2A81B85B2BF484088401B401EDD
:1006A00085B2BD484088801B401E86B221E0A0185C
:1006B00084B2A01A82B2A01A84B2B7480088001B84
:1006C000401E84B2B4480088801A401E82B2A81925
:1006D00085B2A81B86B2A81B85B2AF484088401BD4
:1006E000401E85B2AC484088801B401E86B200E0A8
:1006F00000BF00BFA8498889FFF755FF2012FFF708
:100700005CFFE0B2FFF759FF1012FFF756FFD0B2BF
:10071000FFF753FFA049C889FFF745FF2812FFF7ED
:100720004CFFE8B2FFF749FF3012FFF746FFF0B287
:10073000FFF743FFFFF768FF70BD30B504460D4675
:100740002B46224629462046FFF783FF30BD30B5B1
:1007500004460D4629462046FFF7EFFF8F480088E4
:10076000FFF75EFF30BD70B504460D468A4800882D
:10077000A04203DD88484088A84201DC002070BD0B
:1007800029462046FFF7D9FFFFF744FFFFF757FF41
:1007900006463046F3E770B504467F4800887E4938
:1007A000498800FB01F67C484088401E83B27A48A5
:1007B0000088401E82B200210846FFF74AFF00254C
:1007C00002E0744804806D1CB542FAD370BD70B568
:1007D0002DED048B0446BE20FFF7E5FE0520FFF754
:1007E000ECFE204601F09BFC41EC190B9FED6C0BDD
:1007F00053EC102B01F0A6FC41EC180B01F062FC4D
:1008000085B22846FFF7D9FE0120FFF7D6FEFF206C
:10081000FFF7D3FE0020FFF7D0FE0020FFF7CDFE4C
:10082000BDEC048B70BD00B59FB001213A2001F0F2
:10083000E5F90121084601F019FA4FF400701D9006
:1008400001208DF8780000208DF87A0002208DF8C4
:10085000790001208DF87B001DA9534800F04CFC65
:100860004CF233701D9002208DF8780000208DF836
:100870007A0003208DF8790001208DF87B001DA9F6
:100880004A4800F039FC4FF680701D9002208DF828
:10089000780000208DF87A0003208DF8790001207F
:1008A0008DF87B001DA9424800F026FC4FF408603B
:1008B0001D9002208DF8780000208DF87A0003202A
:1008C0008DF8790001208DF87B001DA9374800F0D4
:1008D00013FC0C220021354800F099FC0C22012168
:1008E000324800F094FC0C220421304800F08FFCC8
:1008F0000C2205212D4800F08AFC0C2208212B48EF
:1009000000F085FC0C220921284800F080FC0C2214
:100910000A21264800F07BFC0C220E21234800F01F
:1009200076FC0C220F21214800F071FC0C220721DB
:100930001F4800F06CFC0C2208211D4800F067FCE9
:100940000C2209211A4800F062FC0C220A211848E6
:1009500000F05DFC0C220B21154800F058FC0C2225
:100960001146134800F053FC0C220D21104800F0F2
:100970004EFC0C220E210E4800F049FC0C220F21E7
:100980000B4800F044FC0C220721084800F03FFC13
:100990000C220FE000000260300000201400002054
:1009A000666666666666044000140240000C0240FB
:1009B000001002400B21CF4800F029FC0F200790C7
:1009C000002008903C20099000200A900B900C9089
:1009D0000D90092000900020019009200290002035
:1009E00003900490059006900E900F9010901020A8
:1009F00011900020129014901390159016904FF4BF
:100A000080501790002018904FF4804019900020DB
:100A10001A9007A81B90CDF870D00EA800F04BFCE0
:100A20000121002000F0D2FCB348006820F00F0044
:100A30004FF02041C1F804010846D0F8040120F429
:100A40007060C1F804010846D0F8040140F00A00C3
:100A5000C1F804010846D0F8040140F42060C1F850
:100A600004011FB000BD10B50020A4490860642037
:100A700000F00CFA0120A249C1F8B402322000F0C3
:100A800005FA10BD00B503462C209E4908812E2092
:100A900048811846D91703EB91718910A3EB8101A6
:100AA000984A91711046807930B1012814D00228FB
:100AB00022D0032840D12FE02B20924988812A2080
:100AC000C8814FF4887008804FF4F0704880A021EE
:100AD0003620FFF77FFD30E02A208A4988812B20CD
:100AE000C8814FF4F07008804FF48870488000216E
:100AF0003620FFF76FFD20E02B20824988812A20D5
:100B0000C8814FF4887008804FF4F07048806021ED
:100B10003620FFF75FFD10E02A207A4988812B20DC
:100B2000C8814FF4F07008804FF488704880C0216D
:100B30003620FFF74FFD00E000BF00BF00BD10B53D
:100B4000FFF771FE642000F0A1F9FFF78CFFE220AF
:100B5000FFF729FD2D20FFF730FD0220FFF72DFDC7
:100B60000420FFF72AFD4FF4FA7000F047F9E02067
:100B7000FFF719FD0120FFF720FD142000F086F992
:100B8000E020FFF710FD0320FFF717FD142000F011
:100B90007DF90120FFF707FD0A2000F077F9E62034
:100BA000FFF701FD0020FFF708FDFF20FFF705FD1F
:100BB000BE20FFF702FDB020FFF7F5FC2020FFF775
:100BC000FCFC0020FFF7F9FC0120FFF7F6FC40F2E7
:100BD000DF10FFF7F2FC0120FFF7EFFC40F20F10EF
:100BE000FFF7EBFC0020FFF7E8FCB420FFF7DBFC8D
:100BF0000220FFF7E2FC40F21220FFF7DEFC0020AB
:100C0000FFF7DBFC2B20FFF7D8FC0020FFF7D5FC1B
:100C10000020FFF7D2FC0020FFF7CFFC0020FFF7F9
:100C2000CCFCB620FFF7BFFC0120FFF7C6FC40F26A
:100C30002310FFF7C2FC0020FFF7BFFC0C20FFF7DA
:100C4000BCFC0020FFF7B9FC0020FFF7B6FC002039
:100C5000FFF7B3FCF020FFF7A6FC0320FFF7ADFC85
:100C60002920FFF7A0FCD020FFF79DFC0020FFF714
:100C7000A4FCBE20FFF797FC0520FFF79EFCFE209A
:100C8000FFF79BFC0120FFF798FC0020FFF795FC85
:100C90000020FFF792FC0020FFF78FFCB820FFF741
:100CA00082FC0320FFF789FC0120FFF786FCBA20B5
:100CB000FFF779FC0120FFF780FC6420FFF787FD38
:100CC0000120FFF7DFFE01200F4908604FF6FF709B
:100CD000FFF761FD10BD08B50020009003226946B2
:100CE000A120FFF77DFC9DF802009DF8011040EA6D
:100CF000012008BD000C0240040100A0B482414262
:100D00000080414230000020A48242421CB50121F3
:100D1000052000F073FF0220009001208DF80400F0
:100D200000208DF8060003208DF8050001208DF8C5
:100D300007006946084800F0DFF90221064800F084
:100D400057FA202000906946044800F0D5F9202188
:100D5000024800F04DFA1CBD0000024000080240AD
:100D60000EB50121880300F0A3FF0121084601F020
:100D7000AAF80220009000208DF804000C208DF8C5
:100D8000050001208DF80600684601F0E3F8072011
:100D90008DF8080002208DF809008DF80A00012066
:100DA0008DF80B0002A800F0B6F800200549087085
:100DB0000EBD10B5012003490870022001F03BF977
:100DC00010BD00001A00002010B504466FF00400AA
:100DD00000F0EEF8E11704EB5171C1F3C701394A95
:100DE00011701046007800EB4001C1EBC0104FF6C7
:100DF000FF7101EAC0003449088010BD0146314A44
:100E000012784A434FF0E0235A6100229A611A4651
:100E1000126942F001021A6100BF4FF0E02210692E
:100E200000F001021AB100F48032002AF5D04FF030
:100E3000E022126922F001024FF0E0231A61002241
:100E40009A6170470146204A12884A434FF0E023D6
:100E50005A6100229A611A46126942F001021A612F
:100E600000BF4FF0E022106900F001021AB100F457
:100E70008032002AF5D04FF0E022126922F0010200
:100E80004FF0E0231A6100229A61704770B5044662
:100E90004FF4077094FBF0F0C6B24FF4077094FB68
:100EA000F0F100FB114085B205E04FF40770FFF749
:100EB000C9FF701EC6B2002EF7D115B12846FFF744
:100EC000C1FF70BD1C0000201E00002009488047A3
:100ED00009480047FEE7FEE7FEE7FEE7FEE7FEE71C
:100EE000FEE7FEE7FEE7FEE704480549054A064B34
:100EF000704700006504000889010008A000002078
:100F0000A0060020A0020020A002002032490143D8
:100F1000324A1160704770B5002100230F22C47857
:100F20001CB32E4C246804F4E064C4F5E064C4F3FC
:100F30000721C1F10404E3B20A4144789C40E1B2C4
:100F40008478144021430C07210E254C0578615507
:100F5000047804F01F050124AC4005786D11AD0044
:100F600005F1E025C5F8004109E0047804F01F050B
:100F70000124AC401B4D0678761145F8264070BD23
:100F8000194A0A400243154B1B1F1A60704739B1BA
:100F9000124A121D12680243104B1B1D1A6006E014
:100FA0000E4A121D126882430C4B1B1D1A607047BB
:100FB000042808D14FF0E021096941F004014FF005
:100FC000E022116107E04FF0E021096921F00401FE
:100FD0004FF0E022116170470000FA050CED00E0CF
:100FE00000E400E080E100E080FFFF1F10B5044650
:100FF0009848844208D10121084600F06AFE002189
:10100000012000F066FE76E09348844208D1012179
:10101000022000F05EFE0021022000F05AFE6AE08D
:101020008E48844208D10121042000F052FE0021A4
:10103000042000F04EFE5EE08948844208D1012180
:10104000082000F046FE0021082000F042FE52E099
:101050008448844208D10121102000F03AFE00218A
:10106000102000F036FE46E07F48844208D101217E
:10107000202000F02EFE0021202000F02AFE3AE081
:101080007A48844208D10121402000F022FE00214C
:10109000402000F01EFE2EE07548844208D1012158
:1010A000802000F016FE0021802000F012FE22E0D9
:1010B0007048844208D10121801500F00AFE002109
:1010C000A01500F006FE16E06B48844208D101210D
:1010D000401500F0FEFD0021601500F0FAFD0AE069
:1010E0006648844207D10121001500F0F2FD00217D
:1010F000201500F0EEFD10BDF0B50A4600210023DA
:10110000002400BF3DE0012505FA01F3156805EA5A
:1011100003049C4234D105684F000326BE40B5430A
:10112000056015794E00B5400668354305601579B0
:10113000012D02D01579022D16D185684F000326A6
:10114000BE40B543856055794E00B540866835434D
:101150008560456801268E40B543456045689679AF
:101160008E40B6B235434560C5684F000326BE4089
:10117000B543C560D5794E00B540C6683543C560F6
:10118000491C1029BFD3F0BD4FF6FF71016000214B
:10119000017141718171C171704708B54FF480329E
:1011A0000092009A0A430092009AC261C161009ABB
:1011B000C261C2690092C269009208BD0246002065
:1011C00013690B400BB1012000E00020704701467D
:1011D000086980B270470246002053690B400BB18A
:1011E000012000E0002070470146486980B2704746
:1011F00001837047418370470AB1018300E0418356
:1012000070474161704742694A4042617047F0B59A
:10121000002300244D07ED0E02FA05F3CE1000F175
:10122000200555F826504E07F70E0F26BE40B54351
:10123000CF1000F1200646F82750CE1000F120050F
:1012400055F8265045EA0304CE1000F1200545F874
:101250002640F0BD000002400004024000080240A9
:10126000000C02400010024000140240001802402E
:10127000001C0240002002400024024000280240DE
:1012800030B943F2DB028100A1F1C0410A6005E000
:1012900043F2D2028100A1F1C0410A606FF07042B6
:1012A000411C8900A1F1C0410A608100A1F1C04147
:1012B000C1F804217047D0E901121143C2681143FB
:1012C000026911434269114382691143C2691143A2
:1012D000026A1143426A1143826A1143C26A11438E
:1012E000026B114302689200A2F1C0421160816852
:1012F00008290BD101688900A1F1C041096841F0BA
:10130000400201688900A1F1C0410A60416B09688F
:10131000426B526841EA0211426B926841EA022133
:10132000426B928941EA0241426B128A41EA0251C0
:10133000426B127D41EA0261426B9269114302687D
:10134000521C9200A2F1C0421160C16AB1F5804FF7
:101350001BD1816B0968826B526841EA0211826B72
:10136000926841EA0221826B128A41EA0251826B41
:10137000127D41EA0261826B926911430268920018
:10138000A2F1C042C2F8041107E06FF07042016898
:101390008900A1F1C041C1F804217047002101601A
:1013A0000221416000218160C16001614161816170
:1013B000C16101624FF480514162490081620021A4
:1013C000C1620163F84941638163704751B1820092
:1013D000A2F1C042126842F001038200A2F1C042B1
:1013E000136009E08200A2F1C0421268EF4B1A407C
:1013F0008300A3F1C0431A60704710280AD1182156
:101400004FF020421166402151664FF0FC31916649
:10141000D16610E01821E64A116040214FF02042C9
:10142000C2F884104FF0FC31E14A083211604FF0ED
:101430002042C2F88C10704730B5002100220023F2
:10144000446844F0080485682C43C5682C4305694A
:101450002C43456944EA4524856944EA4531C46919
:101460002468C5696D6844EA0524C5692D8944EA84
:101470000544C5692D7B44EA0562046A2468056A4F
:101480006D6844EA0524056A2D8944EA0544056A25
:101490002D7B44EA05630468102C05D14FF02044ED
:1014A0002166A266E36608E0C14C21604FF020444B
:1014B000C4F88820BE4C0C34236030BD102101607C
:1014C000002141608160C160016141618161FC2155
:1014D000C2691160C2695160C2699160C269D1601C
:1014E000026A1160026A5160026A9160026AD16008
:1014F000704799B1102808D14FF02042126E42F087
:1015000004024FF020431A661DE0A94A126842F017
:1015100004024FF02043C3F8802014E0102809D1C2
:101520004FF02042126EA14BDB1E1A404FF02043B9
:101530001A6608E09E4A12689C4BDB1E1A404FF068
:101540002043C3F88020704799B1102808D14FF08C
:101550002042126E42F040024FF020431A661DE016
:10156000934A126842F040024FF02043C3F88020B3
:1015700014E0102809D14FF02042126E8B4B3F3BF4
:101580001A404FF020431A6608E0894A1268874BD8
:101590003F3B1A404FF02043C3F88020704701467C
:1015A0000020102903D14FF02042506F02E0804A02
:1015B00014321068704718207D49203108600020DF
:1015C0000906C1F8A4004FF0FC30794928310860C1
:1015D000091D0860091D08607047016841F010018D
:1015E000426841EA4221826841EA4231704A20322F
:1015F0001160C1680968C268526841EA0221C26884
:10160000128941EA0241C268127B41EA0261684ADA
:1016100028321160016909680269526841EA0221B1
:101620000269128941EA02410269127B41EA0261C0
:101630005F4A2C321160416909684269526841EA87
:1016400002214269128941EA02414269127B41EA60
:1016500002614FF02042C2F8B010704700210160D3
:1016600041608160FC21C2681160C2685160C2683B
:101670009160C268D16002691160026951600269BB
:1016800091600269D16042691160426951604269AA
:1016900091604269D160704748B14549203109687D
:1016A00041F004014FF02042C2F8A01009E0404987
:1016B000203109683D4AD21E11404FF02042C2F845
:1016C000A010704710B5F2B1102807D14FF0204399
:1016D0005B6E0B434FF02044636632E0B0F5807FD1
:1016E00008D1334B1B1D1B680B434FF02044C4F83B
:1016F000843026E02E4B24331B680B434FF02044EC
:10170000C4F8A4301DE0102807D14FF020435B6ED1
:101710008B434FF02044636613E0B0F5807F08D11F
:10172000234B1B1D1B688B434FF02044C4F88430AF
:1017300007E01F4B24331B688B434FF02044C4F851
:10174000A43010BD10B5024600200023102A03D19A
:101750004FF02044636E09E0B2F5807F03D1144C52
:10176000241D236802E0124C2434236803EA010498
:101770000CB1012000E0002010BD102807D14FF06F
:101780002042526E8A434FF020435A6619E0B0F56A
:10179000807F0FD1064A121D12688A434FF0204302
:1017A000C3F884200DE000004C230008FEFF0F006A
:1017B000800000A0234A12688A434FF02043C3F8F8
:1017C000A420704770B502460020002300240025A5
:1017D000102A03D14FF02046736E08E0B2F5807FE7
:1017E00003D1184E203E336801E0164E336803EAF9
:1017F000010403EAD10514B10DB1012000E000207D
:1018000070BD102808D14FF02042526E22EAD1025A
:101810004FF020435A6614E0B0F5807F09D1094AA1
:10182000203A126822EAD1024FF02043C3F8842004
:1018300007E0044A126822EAD1024FF02043C3F8BD
:10184000A4207047A40000A0F948006840F00100FF
:10185000F74908600020F64908310860F44800683C
:10186000F4490840F2490860F348091D0860F3484C
:10187000EF4984310860F0481038091D0860EC48D1
:10188000006820F48020EA4908600020E8490C3113
:101890000860E7498C31086070470021E44A921CD7
:1018A000117011460870704710B5014600220023E0
:1018B00000204A11012A02D1DD4C236808E0022AE7
:1018C00003D1DB4C7034236802E0D94C74342368B4
:1018D00001F01F02012494401C400CB1012000E0E3
:1018E000002010BD38B5002000900024002500BF66
:1018F0003120FFF7D9FF05460098401C0090009862
:10190000B0F5A04F01D0002DF2D03120FFF7CCFF71
:1019100008B1012400E00024204638BD0146002023
:10192000C34A106820F0F80040EAC1001060704718
:10193000C349086070470021BD4A703211701170B0
:10194000012802D004280AD104E00121B84A7032EB
:10195000117005E00521B64A7032117000E000BF39
:1019600000BF7047B7490860704770B5049C41EAF2
:1019700082150126C6EB530645EA0645054345EAAE
:101980000465AB4E361D356070BDAD4908667047C5
:10199000820142EA0172A64B84331A607047A8495B
:1019A0008866704710B5830143EA016343EA027316
:1019B0009F4C8834236010BDA14908677047A04937
:1019C000C864704702460020994B0833186820F01D
:1019D000EC6042EA01031843954B083318607047E6
:1019E00002460020924B0833186820F0784042EA03
:1019F000010318438E4B08331860704701460020DE
:101A00008B4A0832106820F00300084310607047CA
:101A100087480830006800F00C007047014600203D
:101A2000834A0832106820F0F000084310607047C5
:101A3000014600207E4A0832106820F4E050084336
:101A40001060704701460020794A0832106820F47F
:101A5000604040EAC10010607047F0B500210022EC
:101A60000024022500260223714F08373F6807F043
:101A70000C0121B1042905D0082937D105E0724FA6
:101A8000076036E0714F076033E0694F3F1D3F68E4
:101A9000C7F38056664F3F1D3F6807F03F036EB1A6
:101AA0006A4FB7FBF3F7DFF888C10CF1040CDCF8E0
:101AB00000C0CCF3881C07FB0CF40CE0624FB7FBB2
:101AC000F3F7DFF86CC10CF1040CDCF800C0CCF3C8
:101AD000881C07FB0CF4564F3F1D3F68C7F30147B6
:101AE0007F1C7D00B4FBF5F7076002E0564F0760EE
:101AF00000BF00BF4E4F08373F6807F0F0010909EB
:101B0000534F7A5C0768D7404760494F08373F68B2
:101B100007F4E051890A4E4F7A5C4768D7408760E6
:101B2000434F08373F6807F46041490B484F7A5CE0
:101B30004768D740C760F0BD002100F44072B2F59D
:101B4000407F0AD13A4A0832116821F4F811414A1B
:101B500002401143364A08321160354A7032126829
:101B6000C0F30B031A43324B70331A607047354988
:101B70004439086070473349403908607047364936
:101B80000860704701460020294A8C32106820F016
:101B90001F004A1E1043264A8C32106070470146CF
:101BA0000020234A8C32106820F4F8504A1E40EA84
:101BB00002201F4A8C3210607047014600201C4AE8
:101BC0008C32106820F440100843106070470146C2
:101BD0000020174A8C32106820F44000084310603F
:101BE000704701460020124A8C32106820F44030C1
:101BF00008431060704719490860704739B10C4AB2
:101C00003032126802430A4B30331A6006E0084A49
:101C1000303212688243064B30331A607047F9B194
:101C2000034A343212680243014B34331A601CE019
:101C300000380240FFFFF6EA103000240030002098
:101C400000004742800E47420024F40000127A0050
:101C500020000020FFFCFF0F5C014742E0114742DB
:101C60008F4A126882438E4B1A60704739B18C4A92
:101C7000121D126802438A4B1B1D1A6006E0884A37
:101C8000121D12688243864B1B1D1A60704739B1C2
:101C9000834A0C3212680243814B0C331A6006E00F
:101CA0007F4A0C32126882437D4B0C331A607047B6
:101CB00039B17B4A103212680243794B10331A60F3
:101CC00006E0774A103212688243754B10331A606F
:101CD000704739B1724A243A12680243704B243B70
:101CE0001A6006E06E4A243A126882436C4B243B29
:101CF0001A60704739B16A4A203A12680243684B49
:101D0000203B1A6006E0664A203A12688243644B20
:101D1000203B1A60704739B1614A1C3A126802438D
:101D20005F4B1C3B1A6006E05D4A1C3A1268824316
:101D30005B4B1C3B1A60704739B1594A143A126820
:101D40000243574B143B1A6006E0554A143A126896
:101D50008243534B143B1A60704739B1504A103AD2
:101D6000126802434E4B103B1A6006E04C4A103A90
:101D7000126882434A4B103B1A60704739B1484A97
:101D80001C3212680243464B1C331A6006E0444A78
:101D90001C3212688243424B1C331A60704739B1BF
:101DA0003F4A2032126802433D4B20331A6006E05E
:101DB0003B4A203212688243394B20331A60704705
:101DC00039B1374A243212680243354B24331A6042
:101DD00006E0334A243212688243314B24331A60BE
:101DE000704739B12E4A2C32126802432C4B2C33E7
:101DF0001A6006E02A4A2C3212688243284B2C33A0
:101E00001A60704739B1264A303212680243244BB7
:101E100030331A6006E0224A303212688243204B87
:101E200030331A607047012808D11D493C310968D8
:101E300041F008011A4A3C32116007E018493C3170
:101E4000096821F00801164A3C321160704739B127
:101E5000134A273A12780243114B273B1A7006E0C7
:101E60000F4A273A127882430D4B273B1A7070476E
:101E70000B484030006840F08070094940310860EC
:101E8000704701460020064A283A12680A400AB103
:101E9000012000E000207047014926390870704792
:101EA0003438024010B501218803FFF756FF0021A6
:101EB0004FF48040FFF751FF10BD1C490860704788
:101EC0001B490862704730B500228B071C0F0F2397
:101ED00003FA04F2154B08338C1053F82430934363
:101EE000124C08348D1044F8253023468C1053F8DA
:101EF00024308C07240F00FA04F423430B4C0834DD
:101F00008D1044F8253030BD0949DC310860704738
:101F1000084908607047002004492031096801F42D
:101F2000807109B1012000E00020704700380140B5
:101F30000000274200042742002041490860091D93
:101F40000860091D0860091D08603E483C491431BD
:101F50000860704700213A498279002A3AD00A463F
:101F6000126803689A430B461A600A1D12680368D8
:101F70009A430B1D1A60027911440A6803681A43D8
:101F80000A602F4A0832126803689A432C4B0833C0
:101F90001A601A1D126803689A43294B0C331A60A1
:101FA0004279102A0ED11A1F126803681A43244B73
:101FB00008331A601A1D126803681A43204B0C3349
:101FC0001A600DE01E49427911440A6803681A43F9
:101FD0000A6005E0027911440A6803689A430A60BE
:101FE00070470021016001710C2141710021817154
:101FF00070471349103109680143114A10321160CA
:102000007047014600200E4A143212680A400AB195
:10201000012000E000207047094914310860704732
:1020200001460020064A143212680A400AB1012013
:1020300000E000207047024914310860704700003A
:10204000003C0140FFFF7F00704770477047000071
:1020500000487047400000207546FFF7F9FFAE4684
:1020600005006946534620F00700854618B020B5A4
:10207000FEF73AFFBDE820404FF000064FF00007A2
:102080004FF000084FF0000B21F00701AC46ACE820
:10209000C009ACE8C009ACE8C009ACE8C0098D468D
:1020A000704710B50446AFF300802046BDE81040ED
:1020B000FEF7B3B87047000001491820ABBEFEE739
:1020C000260002004FEA1153A3F58063D3F11E03EB
:1020D000A8BFD3F1200C08DB4FF0004242EAC12236
:1020E00052EA505232FA03F0704709420BD4102BD7
:1020F000C4BF0020704703F5787CBCF1FF3F05D0DA
:102100004FF0FF3070474FF00000704770B500F09F
:10211000C3F800BF4992248000207047F0E7B0FA6E
:1021200080F310FA03F10AD0C3F11D0303F58063B5
:102130004FEA41504FEA035202EBD12170474FF072
:1021400000007047DFF848C170B51CEA111E1EBFC1
:102150001CEA13159EEA0C0F95EA0C0F00F06F8035
:1021600081EA030423EA4C134EEAD47E21EA4C119F
:1021700041F4801143F48013AE44A1FB024CA0FB58
:102180000365AEF17F7E361955EB0C05A1FB034CC0
:102190004CF10003A0FB021C16EB0C06654153F149
:1021A0000003094218BF46F0010613F4007F0BD16B
:1021B0004FEA03314FEA0530340341EA155140EA52
:1021C00016506FF003020AE04FEAC3214FEAC52020
:1021D000F40241EA555140EA56506FF0020202EB18
:1021E0002E4201EB025585EACE710AD05FEA440C1B
:1021F00018BF24F0004450F1000041F1000120EA32
:10220000D47040F2FE7C624500D270BDA84214BF7B
:102210004FF080444FF04044002E08BF0024BEF130
:10222000806FA8BFA1F1C041BDE8704080F28280FC
:102230004FF0000001F1C04101F0004170479EEAFB
:102240000C0F0CEA131518BF95EA0C0F06D04FF0CF
:10225000000081EA030E0EF0004170BD00F01CF892
:102260008900013E00F007B800F009B84FEA430CBE
:102270005FEA5C5C08D081EA030100F05BB84FEADA
:10228000410C5FEA5C5CF6D14FF0000001497047F9
:102290000000FF070000F87F0EF1020E2EF0030E83
:1022A0005EF8046B364205D4012A43EB030515F5AD
:1022B000001F12D8012841EB010C1CF5001F0CD89F
:1022C0000ED14FEAD17C15F5001F0CEB4C0C0CF134
:1022D000020C08BF4CEBD37C04E04FF0080C01E08B
:1022E0004FEAD37C0CEB4C0526FA05F606F0070600
:1022F000B6F1040C06D20EEB860CBDE870404CF033
:10230000010C6047DFE80CF0090B02024FF00041BE
:102310004FF00000A1F5002170BD194610460128BC
:1023200051EB010418BFD4F5001484BF002001F064
:10233000004170BD0808A0F500114FEA3101704757
:102340004FF04070E1EE100A704700000F000000EF
:102350000F000000FF0000000F0000000F00000051
:102360000F0000000000000088230008000000208B
:1023700030000000C4010008B8230008300000202D
:1023800070060000E0010008007A030A0000000067
:102390000000000001020304060708090000FFFF17
:1023A0000000000000000000000000000102030423
:0823B0000102030406070809FD
:040000050800018965
:00000001FF
